{
  "_format": "hh-sol-artifact-1",
  "contractName": "NftMusicMarketplace",
  "sourceName": "contracts/NftMusicMarketplace.sol",
  "abi": [
    {
      "anonymous": false,
      "inputs": [
        {
          "indexed": true,
          "internalType": "uint256",
          "name": "itemId",
          "type": "uint256"
        },
        {
          "indexed": true,
          "internalType": "address",
          "name": "nftContract",
          "type": "address"
        },
        {
          "indexed": true,
          "internalType": "uint256",
          "name": "tokenId",
          "type": "uint256"
        },
        {
          "indexed": false,
          "internalType": "address",
          "name": "seller",
          "type": "address"
        },
        {
          "indexed": false,
          "internalType": "address",
          "name": "creator",
          "type": "address"
        },
        {
          "indexed": false,
          "internalType": "uint256",
          "name": "price",
          "type": "uint256"
        },
        {
          "indexed": false,
          "internalType": "uint256",
          "name": "saleDateStart",
          "type": "uint256"
        },
        {
          "indexed": false,
          "internalType": "uint256",
          "name": "saleDateEnd",
          "type": "uint256"
        },
        {
          "indexed": false,
          "internalType": "bool",
          "name": "onSale",
          "type": "bool"
        }
      ],
      "name": "NftListedOnMarket",
      "type": "event"
    },
    {
      "anonymous": false,
      "inputs": [
        {
          "indexed": true,
          "internalType": "uint256",
          "name": "itemId",
          "type": "uint256"
        },
        {
          "indexed": true,
          "internalType": "address",
          "name": "nftContract",
          "type": "address"
        },
        {
          "indexed": true,
          "internalType": "uint256",
          "name": "tokenId",
          "type": "uint256"
        },
        {
          "indexed": false,
          "internalType": "address",
          "name": "seller",
          "type": "address"
        },
        {
          "indexed": false,
          "internalType": "address",
          "name": "buyer",
          "type": "address"
        },
        {
          "indexed": false,
          "internalType": "uint256",
          "name": "price",
          "type": "uint256"
        },
        {
          "indexed": false,
          "internalType": "bool",
          "name": "onSale",
          "type": "bool"
        }
      ],
      "name": "NftSold",
      "type": "event"
    },
    {
      "anonymous": false,
      "inputs": [
        {
          "indexed": true,
          "internalType": "uint256",
          "name": "itemId",
          "type": "uint256"
        },
        {
          "indexed": true,
          "internalType": "address",
          "name": "nftContract",
          "type": "address"
        },
        {
          "indexed": true,
          "internalType": "uint256",
          "name": "tokenId",
          "type": "uint256"
        },
        {
          "indexed": false,
          "internalType": "address",
          "name": "seller",
          "type": "address"
        },
        {
          "indexed": false,
          "internalType": "address",
          "name": "creator",
          "type": "address"
        },
        {
          "indexed": false,
          "internalType": "bool",
          "name": "onSale",
          "type": "bool"
        }
      ],
      "name": "NftUnlistedFromMarket",
      "type": "event"
    },
    {
      "anonymous": false,
      "inputs": [
        {
          "indexed": true,
          "internalType": "address",
          "name": "previousOwner",
          "type": "address"
        },
        {
          "indexed": true,
          "internalType": "address",
          "name": "newOwner",
          "type": "address"
        }
      ],
      "name": "OwnershipTransferred",
      "type": "event"
    },
    {
      "inputs": [
        {
          "internalType": "address",
          "name": "nftContract",
          "type": "address"
        },
        {
          "internalType": "uint256",
          "name": "tokenId",
          "type": "uint256"
        }
      ],
      "name": "buyNFT",
      "outputs": [],
      "stateMutability": "payable",
      "type": "function"
    },
    {
      "inputs": [
        {
          "internalType": "address",
          "name": "nftContract",
          "type": "address"
        },
        {
          "internalType": "uint256",
          "name": "tokenId",
          "type": "uint256"
        },
        {
          "internalType": "uint256",
          "name": "price",
          "type": "uint256"
        },
        {
          "internalType": "uint256",
          "name": "saleDateStart",
          "type": "uint256"
        },
        {
          "internalType": "uint256",
          "name": "saleDateEnd",
          "type": "uint256"
        }
      ],
      "name": "createNFT",
      "outputs": [],
      "stateMutability": "payable",
      "type": "function"
    },
    {
      "inputs": [],
      "name": "getBalance",
      "outputs": [
        {
          "internalType": "uint256",
          "name": "",
          "type": "uint256"
        }
      ],
      "stateMutability": "view",
      "type": "function"
    },
    {
      "inputs": [
        {
          "internalType": "address",
          "name": "nftContract",
          "type": "address"
        },
        {
          "internalType": "uint256",
          "name": "tokenId",
          "type": "uint256"
        }
      ],
      "name": "getNftById",
      "outputs": [
        {
          "components": [
            {
              "internalType": "uint256",
              "name": "itemId",
              "type": "uint256"
            },
            {
              "internalType": "address",
              "name": "nftContract",
              "type": "address"
            },
            {
              "internalType": "uint256",
              "name": "tokenId",
              "type": "uint256"
            },
            {
              "internalType": "address payable",
              "name": "creator",
              "type": "address"
            },
            {
              "internalType": "address payable",
              "name": "owner",
              "type": "address"
            },
            {
              "internalType": "uint256",
              "name": "price",
              "type": "uint256"
            },
            {
              "internalType": "uint256",
              "name": "saleDateStart",
              "type": "uint256"
            },
            {
              "internalType": "uint256",
              "name": "saleDateEnd",
              "type": "uint256"
            },
            {
              "internalType": "bool",
              "name": "onSale",
              "type": "bool"
            }
          ],
          "internalType": "struct NftMusicMarketplace.MarketItem",
          "name": "marketItem",
          "type": "tuple"
        }
      ],
      "stateMutability": "view",
      "type": "function"
    },
    {
      "inputs": [
        {
          "internalType": "address",
          "name": "user",
          "type": "address"
        }
      ],
      "name": "getNftsByCreator",
      "outputs": [
        {
          "components": [
            {
              "internalType": "uint256",
              "name": "itemId",
              "type": "uint256"
            },
            {
              "internalType": "address",
              "name": "nftContract",
              "type": "address"
            },
            {
              "internalType": "uint256",
              "name": "tokenId",
              "type": "uint256"
            },
            {
              "internalType": "address payable",
              "name": "creator",
              "type": "address"
            },
            {
              "internalType": "address payable",
              "name": "owner",
              "type": "address"
            },
            {
              "internalType": "uint256",
              "name": "price",
              "type": "uint256"
            },
            {
              "internalType": "uint256",
              "name": "saleDateStart",
              "type": "uint256"
            },
            {
              "internalType": "uint256",
              "name": "saleDateEnd",
              "type": "uint256"
            },
            {
              "internalType": "bool",
              "name": "onSale",
              "type": "bool"
            }
          ],
          "internalType": "struct NftMusicMarketplace.MarketItem[]",
          "name": "marketItems",
          "type": "tuple[]"
        }
      ],
      "stateMutability": "view",
      "type": "function"
    },
    {
      "inputs": [
        {
          "internalType": "address",
          "name": "user",
          "type": "address"
        }
      ],
      "name": "getNftsByOwner",
      "outputs": [
        {
          "components": [
            {
              "internalType": "uint256",
              "name": "itemId",
              "type": "uint256"
            },
            {
              "internalType": "address",
              "name": "nftContract",
              "type": "address"
            },
            {
              "internalType": "uint256",
              "name": "tokenId",
              "type": "uint256"
            },
            {
              "internalType": "address payable",
              "name": "creator",
              "type": "address"
            },
            {
              "internalType": "address payable",
              "name": "owner",
              "type": "address"
            },
            {
              "internalType": "uint256",
              "name": "price",
              "type": "uint256"
            },
            {
              "internalType": "uint256",
              "name": "saleDateStart",
              "type": "uint256"
            },
            {
              "internalType": "uint256",
              "name": "saleDateEnd",
              "type": "uint256"
            },
            {
              "internalType": "bool",
              "name": "onSale",
              "type": "bool"
            }
          ],
          "internalType": "struct NftMusicMarketplace.MarketItem[]",
          "name": "marketItems",
          "type": "tuple[]"
        }
      ],
      "stateMutability": "view",
      "type": "function"
    },
    {
      "inputs": [],
      "name": "getNftsOnMarket",
      "outputs": [
        {
          "components": [
            {
              "internalType": "uint256",
              "name": "itemId",
              "type": "uint256"
            },
            {
              "internalType": "address",
              "name": "nftContract",
              "type": "address"
            },
            {
              "internalType": "uint256",
              "name": "tokenId",
              "type": "uint256"
            },
            {
              "internalType": "address payable",
              "name": "creator",
              "type": "address"
            },
            {
              "internalType": "address payable",
              "name": "owner",
              "type": "address"
            },
            {
              "internalType": "uint256",
              "name": "price",
              "type": "uint256"
            },
            {
              "internalType": "uint256",
              "name": "saleDateStart",
              "type": "uint256"
            },
            {
              "internalType": "uint256",
              "name": "saleDateEnd",
              "type": "uint256"
            },
            {
              "internalType": "bool",
              "name": "onSale",
              "type": "bool"
            }
          ],
          "internalType": "struct NftMusicMarketplace.MarketItem[]",
          "name": "marketItems",
          "type": "tuple[]"
        }
      ],
      "stateMutability": "view",
      "type": "function"
    },
    {
      "inputs": [
        {
          "internalType": "uint256",
          "name": "_creatorRoyaltyPercentage",
          "type": "uint256"
        },
        {
          "internalType": "uint256",
          "name": "_marketplaceFeePercentage",
          "type": "uint256"
        }
      ],
      "name": "initialize",
      "outputs": [],
      "stateMutability": "nonpayable",
      "type": "function"
    },
    {
      "inputs": [],
      "name": "owner",
      "outputs": [
        {
          "internalType": "address",
          "name": "",
          "type": "address"
        }
      ],
      "stateMutability": "view",
      "type": "function"
    },
    {
      "inputs": [],
      "name": "renounceOwnership",
      "outputs": [],
      "stateMutability": "nonpayable",
      "type": "function"
    },
    {
      "inputs": [
        {
          "internalType": "address",
          "name": "newOwner",
          "type": "address"
        }
      ],
      "name": "transferOwnership",
      "outputs": [],
      "stateMutability": "nonpayable",
      "type": "function"
    },
    {
      "inputs": [
        {
          "internalType": "address",
          "name": "nftContract",
          "type": "address"
        },
        {
          "internalType": "uint256",
          "name": "tokenId",
          "type": "uint256"
        }
      ],
      "name": "unlistNFT",
      "outputs": [],
      "stateMutability": "payable",
      "type": "function"
    },
    {
      "inputs": [
        {
          "internalType": "uint256",
          "name": "amount",
          "type": "uint256"
        }
      ],
      "name": "withdraw",
      "outputs": [],
      "stateMutability": "nonpayable",
      "type": "function"
    },
    {
      "stateMutability": "payable",
      "type": "receive"
    }
  ],
  "bytecode": "0x608060405234801561001057600080fd5b506133dd806100206000396000f3fe6080604052600436106100c65760003560e01c80638da5cb5b1161007f578063c509971611610059578063c509971614610267578063e4a30116146102a4578063e91f9d96146102cd578063f2fde38b1461030a57610110565b80638da5cb5b14610204578063a82ba76f1461022f578063be66c3221461024b57610110565b806312065fe0146101155780632e1a7d4d14610140578063715018a6146101695780637ec1c2e6146101805780637fc27efd146101ab5780638126ca97146101c757610110565b36610110576000341161010e576040517f08c379a000000000000000000000000000000000000000000000000000000000815260040161010590612cdf565b60405180910390fd5b005b600080fd5b34801561012157600080fd5b5061012a610333565b6040516101379190612e1b565b60405180910390f35b34801561014c57600080fd5b5061016760048036038101906101629190612624565b6103b7565b005b34801561017557600080fd5b5061017e610503565b005b34801561018c57600080fd5b5061019561058b565b6040516101a29190612c3d565b60405180910390f35b6101c560048036038101906101c09190612571565b610845565b005b3480156101d357600080fd5b506101ee60048036038101906101e99190612571565b610acc565b6040516101fb9190612dff565b60405180910390f35b34801561021057600080fd5b50610219610d28565b6040516102269190612aad565b60405180910390f35b61024960048036038101906102449190612571565b610d52565b005b610265600480360381019061026091906125ad565b611328565b005b34801561027357600080fd5b5061028e6004803603810190610289919061251f565b6119f0565b60405161029b9190612c3d565b60405180910390f35b3480156102b057600080fd5b506102cb60048036038101906102c6919061264d565b611cd9565b005b3480156102d957600080fd5b506102f460048036038101906102ef919061251f565b611ddd565b6040516103019190612c3d565b60405180910390f35b34801561031657600080fd5b50610331600480360381019061032c919061251f565b6120c6565b005b600061033d6121be565b73ffffffffffffffffffffffffffffffffffffffff1661035b610d28565b73ffffffffffffffffffffffffffffffffffffffff16146103b1576040517f08c379a00000000000000000000000000000000000000000000000000000000081526004016103a890612d3f565b60405180910390fd5b47905090565b6103bf6121be565b73ffffffffffffffffffffffffffffffffffffffff166103dd610d28565b73ffffffffffffffffffffffffffffffffffffffff1614610433576040517f08c379a000000000000000000000000000000000000000000000000000000000815260040161042a90612d3f565b60405180910390fd5b60008111610476576040517f08c379a000000000000000000000000000000000000000000000000000000000815260040161046d90612cdf565b60405180910390fd5b804710156104b9576040517f08c379a00000000000000000000000000000000000000000000000000000000081526004016104b090612cff565b60405180910390fd5b3373ffffffffffffffffffffffffffffffffffffffff166108fc479081150290604051600060405180830381858888f193505050501580156104ff573d6000803e3d6000fd5b5050565b61050b6121be565b73ffffffffffffffffffffffffffffffffffffffff16610529610d28565b73ffffffffffffffffffffffffffffffffffffffff161461057f576040517f08c379a000000000000000000000000000000000000000000000000000000000815260040161057690612d3f565b60405180910390fd5b61058960006121c6565b565b6060610597609861228c565b6105a1609761228c565b6105ab9190612f61565b67ffffffffffffffff8111156105ea577f4e487b7100000000000000000000000000000000000000000000000000000000600052604160045260246000fd5b60405190808252806020026020018201604052801561062357816020015b610610612450565b8152602001906001900390816106085790505b50905060005b610633609761228c565b81101561084157609b600060018361064b9190612e80565b815260200190815260200160002060080160009054906101000a900460ff161561082e57609b60006001836106809190612e80565b815260200190815260200160002060405180610120016040529081600082015481526020016001820160009054906101000a900473ffffffffffffffffffffffffffffffffffffffff1673ffffffffffffffffffffffffffffffffffffffff1673ffffffffffffffffffffffffffffffffffffffff168152602001600282015481526020016003820160009054906101000a900473ffffffffffffffffffffffffffffffffffffffff1673ffffffffffffffffffffffffffffffffffffffff1673ffffffffffffffffffffffffffffffffffffffff1681526020016004820160009054906101000a900473ffffffffffffffffffffffffffffffffffffffff1673ffffffffffffffffffffffffffffffffffffffff1673ffffffffffffffffffffffffffffffffffffffff1681526020016005820154815260200160068201548152602001600782015481526020016008820160009054906101000a900460ff161515151581525050828281518110610822577f4e487b7100000000000000000000000000000000000000000000000000000000600052603260045260246000fd5b60200260200101819052505b808061083990613025565b915050610629565b5090565b6002606554141561088b576040517f08c379a000000000000000000000000000000000000000000000000000000000815260040161088290612dbf565b60405180910390fd5b600260658190555060005b6108a0609761228c565b811015610abf5760006001826108b69190612e80565b90508373ffffffffffffffffffffffffffffffffffffffff16609b600083815260200190815260200160002060010160009054906101000a900473ffffffffffffffffffffffffffffffffffffffff1673ffffffffffffffffffffffffffffffffffffffff1614801561093e575082609b600083815260200190815260200160002060020154145b80156109ab57503373ffffffffffffffffffffffffffffffffffffffff16609b600083815260200190815260200160002060040160009054906101000a900473ffffffffffffffffffffffffffffffffffffffff1673ffffffffffffffffffffffffffffffffffffffff16145b15610aab578373ffffffffffffffffffffffffffffffffffffffff166323b872dd3033866040518463ffffffff1660e01b81526004016109ed93929190612b60565b600060405180830381600087803b158015610a0757600080fd5b505af1158015610a1b573d6000803e3d6000fd5b50505050828473ffffffffffffffffffffffffffffffffffffffff16827fff96c73384d5ad7e10849cb8764ae4372131bb2188a4431fe3cb96ac2ac59f4a33609b600087815260200190815260200160002060030160009054906101000a900473ffffffffffffffffffffffffffffffffffffffff166000604051610aa293929190612ac8565b60405180910390a45b508080610ab790613025565b915050610896565b5060016065819055505050565b610ad4612450565b60005b610ae1609761228c565b811015610d20578373ffffffffffffffffffffffffffffffffffffffff16609b6000600184610b109190612e80565b815260200190815260200160002060010160009054906101000a900473ffffffffffffffffffffffffffffffffffffffff1673ffffffffffffffffffffffffffffffffffffffff16148015610b86575082609b6000600184610b729190612e80565b815260200190815260200160002060020154145b15610d0d57609b6000600183610b9c9190612e80565b815260200190815260200160002060405180610120016040529081600082015481526020016001820160009054906101000a900473ffffffffffffffffffffffffffffffffffffffff1673ffffffffffffffffffffffffffffffffffffffff1673ffffffffffffffffffffffffffffffffffffffff168152602001600282015481526020016003820160009054906101000a900473ffffffffffffffffffffffffffffffffffffffff1673ffffffffffffffffffffffffffffffffffffffff1673ffffffffffffffffffffffffffffffffffffffff1681526020016004820160009054906101000a900473ffffffffffffffffffffffffffffffffffffffff1673ffffffffffffffffffffffffffffffffffffffff1673ffffffffffffffffffffffffffffffffffffffff1681526020016005820154815260200160068201548152602001600782015481526020016008820160009054906101000a900460ff161515151581525050915050610d22565b8080610d1890613025565b915050610ad7565b505b92915050565b6000603360009054906101000a900473ffffffffffffffffffffffffffffffffffffffff16905090565b60026065541415610d98576040517f08c379a0000000000000000000000000000000000000000000000000000000008152600401610d8f90612dbf565b60405180910390fd5b600260658190555060005b610dad609761228c565b81101561131b578273ffffffffffffffffffffffffffffffffffffffff16609b6000600184610ddc9190612e80565b815260200190815260200160002060010160009054906101000a900473ffffffffffffffffffffffffffffffffffffffff1673ffffffffffffffffffffffffffffffffffffffff16148015610e52575081609b6000600184610e3e9190612e80565b815260200190815260200160002060020154145b8015610e8a5750609b6000600183610e6a9190612e80565b815260200190815260200160002060080160009054906101000a900460ff165b15611308576000819050609b6000828152602001908152602001600020600501543414610eec576040517f08c379a0000000000000000000000000000000000000000000000000000000008152600401610ee390612d7f565b60405180910390fd5b609b600082815260200190815260200160002060080160009054906101000a900460ff16610f4f576040517f08c379a0000000000000000000000000000000000000000000000000000000008152600401610f4690612cbf565b60405180910390fd5b42609b60008381526020019081526020016000206006015411158015610f8b575042609b60008381526020019081526020016000206007015410155b610fca576040517f08c379a0000000000000000000000000000000000000000000000000000000008152600401610fc190612d5f565b60405180910390fd5b8373ffffffffffffffffffffffffffffffffffffffff166323b872dd3033609b6000868152602001908152602001600020600201546040518463ffffffff1660e01b815260040161101d93929190612b60565b600060405180830381600087803b15801561103757600080fd5b505af115801561104b573d6000803e3d6000fd5b50505050600068056bc75e2d63100000609954609b60008581526020019081526020016000206005015461107f9190612f07565b6110899190612ed6565b9050600068056bc75e2d63100000609a54609b6000868152602001908152602001600020600501546110bb9190612f07565b6110c59190612ed6565b905060008183609b6000878152602001908152602001600020600501546110ec9190612f61565b6110f69190612f61565b9050609b600085815260200190815260200160002060040160009054906101000a900473ffffffffffffffffffffffffffffffffffffffff1673ffffffffffffffffffffffffffffffffffffffff166108fc829081150290604051600060405180830381858888f19350505050158015611174573d6000803e3d6000fd5b50609b600085815260200190815260200160002060030160009054906101000a900473ffffffffffffffffffffffffffffffffffffffff1673ffffffffffffffffffffffffffffffffffffffff166108fc849081150290604051600060405180830381858888f193505050501580156111f1573d6000803e3d6000fd5b5033609b600086815260200190815260200160002060040160006101000a81548173ffffffffffffffffffffffffffffffffffffffff021916908373ffffffffffffffffffffffffffffffffffffffff1602179055506000609b600086815260200190815260200160002060080160006101000a81548160ff021916908315150217905550611280609861229a565b609b6000858152602001908152602001600020600201548773ffffffffffffffffffffffffffffffffffffffff16857f66b67f336c1892398c6423309959e9c6c9d261aab21ea8ffa6210b59e4f720443333609b60008b81526020019081526020016000206005015460006040516112fb9493929190612b97565b60405180910390a4505050505b808061131390613025565b915050610da3565b5060016065819055505050565b6002606554141561136e576040517f08c379a000000000000000000000000000000000000000000000000000000000815260040161136590612dbf565b60405180910390fd5b6002606581905550600083116113b9576040517f08c379a00000000000000000000000000000000000000000000000000000000081526004016113b090612ddf565b60405180910390fd5b8082106113fb576040517f08c379a00000000000000000000000000000000000000000000000000000000081526004016113f290612c5f565b60405180910390fd5b3373ffffffffffffffffffffffffffffffffffffffff168573ffffffffffffffffffffffffffffffffffffffff16636352211e866040518263ffffffff1660e01b815260040161144b9190612e1b565b60206040518083038186803b15801561146357600080fd5b505afa158015611477573d6000803e3d6000fd5b505050506040513d601f19601f8201168201806040525081019061149b9190612548565b73ffffffffffffffffffffffffffffffffffffffff16146114f1576040517f08c379a00000000000000000000000000000000000000000000000000000000081526004016114e890612c9f565b60405180910390fd5b60005b6114fe609761228c565b811015611739578573ffffffffffffffffffffffffffffffffffffffff16609b600060018461152d9190612e80565b815260200190815260200160002060010160009054906101000a900473ffffffffffffffffffffffffffffffffffffffff1673ffffffffffffffffffffffffffffffffffffffff161480156115a3575084609b600060018461158f9190612e80565b815260200190815260200160002060020154145b156117265760006001826115b79190612e80565b90506001609b600083815260200190815260200160002060080160006101000a81548160ff02191690831515021790555084609b60008381526020019081526020016000206005018190555083609b60008381526020019081526020016000206006018190555082609b60008381526020019081526020016000206007018190555033609b600083815260200190815260200160002060040160006101000a81548173ffffffffffffffffffffffffffffffffffffffff021916908373ffffffffffffffffffffffffffffffffffffffff160217905550858773ffffffffffffffffffffffffffffffffffffffff16827fd5de88191ac737ed2c899c2b971eb5bf664a64fe3b12c244c254a6d234cd28be33609b600087815260200190815260200160002060030160009054906101000a900473ffffffffffffffffffffffffffffffffffffffff168a8a8a600160405161171796959493929190612aff565b60405180910390a450506119e1565b808061173190613025565b9150506114f4565b50611744609761229a565b6000611750609761228c565b90506040518061012001604052808281526020018773ffffffffffffffffffffffffffffffffffffffff1681526020018681526020013373ffffffffffffffffffffffffffffffffffffffff1681526020013373ffffffffffffffffffffffffffffffffffffffff16815260200185815260200184815260200183815260200160011515815250609b60008381526020019081526020016000206000820151816000015560208201518160010160006101000a81548173ffffffffffffffffffffffffffffffffffffffff021916908373ffffffffffffffffffffffffffffffffffffffff1602179055506040820151816002015560608201518160030160006101000a81548173ffffffffffffffffffffffffffffffffffffffff021916908373ffffffffffffffffffffffffffffffffffffffff16021790555060808201518160040160006101000a81548173ffffffffffffffffffffffffffffffffffffffff021916908373ffffffffffffffffffffffffffffffffffffffff16021790555060a0820151816005015560c0820151816006015560e082015181600701556101008201518160080160006101000a81548160ff0219169083151502179055509050508573ffffffffffffffffffffffffffffffffffffffff166323b872dd3330886040518463ffffffff1660e01b815260040161195293929190612b60565b600060405180830381600087803b15801561196c57600080fd5b505af1158015611980573d6000803e3d6000fd5b50505050848673ffffffffffffffffffffffffffffffffffffffff16827fd5de88191ac737ed2c899c2b971eb5bf664a64fe3b12c244c254a6d234cd28be333389898960016040516119d796959493929190612bdc565b60405180910390a4505b60016065819055505050505050565b60606119fc609761228c565b67ffffffffffffffff811115611a3b577f4e487b7100000000000000000000000000000000000000000000000000000000600052604160045260246000fd5b604051908082528060200260200182016040528015611a7457816020015b611a61612450565b815260200190600190039081611a595790505b50905060005b611a84609761228c565b811015611cd3578273ffffffffffffffffffffffffffffffffffffffff16609b6000600184611ab39190612e80565b815260200190815260200160002060030160009054906101000a900473ffffffffffffffffffffffffffffffffffffffff1673ffffffffffffffffffffffffffffffffffffffff161415611cc057609b6000600183611b129190612e80565b815260200190815260200160002060405180610120016040529081600082015481526020016001820160009054906101000a900473ffffffffffffffffffffffffffffffffffffffff1673ffffffffffffffffffffffffffffffffffffffff1673ffffffffffffffffffffffffffffffffffffffff168152602001600282015481526020016003820160009054906101000a900473ffffffffffffffffffffffffffffffffffffffff1673ffffffffffffffffffffffffffffffffffffffff1673ffffffffffffffffffffffffffffffffffffffff1681526020016004820160009054906101000a900473ffffffffffffffffffffffffffffffffffffffff1673ffffffffffffffffffffffffffffffffffffffff1673ffffffffffffffffffffffffffffffffffffffff1681526020016005820154815260200160068201548152602001600782015481526020016008820160009054906101000a900460ff161515151581525050828281518110611cb4577f4e487b7100000000000000000000000000000000000000000000000000000000600052603260045260246000fd5b60200260200101819052505b8080611ccb90613025565b915050611a7a565b50919050565b600060019054906101000a900460ff16611d015760008054906101000a900460ff1615611d0a565b611d096122b0565b5b611d49576040517f08c379a0000000000000000000000000000000000000000000000000000000008152600401611d4090612d1f565b60405180910390fd5b60008060019054906101000a900460ff161590508015611d99576001600060016101000a81548160ff02191690831515021790555060016000806101000a81548160ff0219169083151502179055505b611da16122c1565b611da961231a565b8260998190555081609a819055508015611dd85760008060016101000a81548160ff0219169083151502179055505b505050565b6060611de9609761228c565b67ffffffffffffffff811115611e28577f4e487b7100000000000000000000000000000000000000000000000000000000600052604160045260246000fd5b604051908082528060200260200182016040528015611e6157816020015b611e4e612450565b815260200190600190039081611e465790505b50905060005b611e71609761228c565b8110156120c0578273ffffffffffffffffffffffffffffffffffffffff16609b6000600184611ea09190612e80565b815260200190815260200160002060040160009054906101000a900473ffffffffffffffffffffffffffffffffffffffff1673ffffffffffffffffffffffffffffffffffffffff1614156120ad57609b6000600183611eff9190612e80565b815260200190815260200160002060405180610120016040529081600082015481526020016001820160009054906101000a900473ffffffffffffffffffffffffffffffffffffffff1673ffffffffffffffffffffffffffffffffffffffff1673ffffffffffffffffffffffffffffffffffffffff168152602001600282015481526020016003820160009054906101000a900473ffffffffffffffffffffffffffffffffffffffff1673ffffffffffffffffffffffffffffffffffffffff1673ffffffffffffffffffffffffffffffffffffffff1681526020016004820160009054906101000a900473ffffffffffffffffffffffffffffffffffffffff1673ffffffffffffffffffffffffffffffffffffffff1673ffffffffffffffffffffffffffffffffffffffff1681526020016005820154815260200160068201548152602001600782015481526020016008820160009054906101000a900460ff1615151515815250508282815181106120a1577f4e487b7100000000000000000000000000000000000000000000000000000000600052603260045260246000fd5b60200260200101819052505b80806120b890613025565b915050611e67565b50919050565b6120ce6121be565b73ffffffffffffffffffffffffffffffffffffffff166120ec610d28565b73ffffffffffffffffffffffffffffffffffffffff1614612142576040517f08c379a000000000000000000000000000000000000000000000000000000000815260040161213990612d3f565b60405180910390fd5b600073ffffffffffffffffffffffffffffffffffffffff168173ffffffffffffffffffffffffffffffffffffffff1614156121b2576040517f08c379a00000000000000000000000000000000000000000000000000000000081526004016121a990612c7f565b60405180910390fd5b6121bb816121c6565b50565b600033905090565b6000603360009054906101000a900473ffffffffffffffffffffffffffffffffffffffff16905081603360006101000a81548173ffffffffffffffffffffffffffffffffffffffff021916908373ffffffffffffffffffffffffffffffffffffffff1602179055508173ffffffffffffffffffffffffffffffffffffffff168173ffffffffffffffffffffffffffffffffffffffff167f8be0079c531659141344cd1fd0a4f28419497f9722a3daafe3b4186f6b6457e060405160405180910390a35050565b600081600001549050919050565b6001816000016000828254019250508190555050565b60006122bb30612373565b15905090565b600060019054906101000a900460ff16612310576040517f08c379a000000000000000000000000000000000000000000000000000000000815260040161230790612d9f565b60405180910390fd5b612318612396565b565b600060019054906101000a900460ff16612369576040517f08c379a000000000000000000000000000000000000000000000000000000000815260040161236090612d9f565b60405180910390fd5b6123716123f7565b565b6000808273ffffffffffffffffffffffffffffffffffffffff163b119050919050565b600060019054906101000a900460ff166123e5576040517f08c379a00000000000000000000000000000000000000000000000000000000081526004016123dc90612d9f565b60405180910390fd5b6123f56123f06121be565b6121c6565b565b600060019054906101000a900460ff16612446576040517f08c379a000000000000000000000000000000000000000000000000000000000815260040161243d90612d9f565b60405180910390fd5b6001606581905550565b60405180610120016040528060008152602001600073ffffffffffffffffffffffffffffffffffffffff16815260200160008152602001600073ffffffffffffffffffffffffffffffffffffffff168152602001600073ffffffffffffffffffffffffffffffffffffffff1681526020016000815260200160008152602001600081526020016000151581525090565b6000813590506124ef81613379565b92915050565b60008151905061250481613379565b92915050565b60008135905061251981613390565b92915050565b60006020828403121561253157600080fd5b600061253f848285016124e0565b91505092915050565b60006020828403121561255a57600080fd5b6000612568848285016124f5565b91505092915050565b6000806040838503121561258457600080fd5b6000612592858286016124e0565b92505060206125a38582860161250a565b9150509250929050565b600080600080600060a086880312156125c557600080fd5b60006125d3888289016124e0565b95505060206125e48882890161250a565b94505060406125f58882890161250a565b93505060606126068882890161250a565b92505060806126178882890161250a565b9150509295509295909350565b60006020828403121561263657600080fd5b60006126448482850161250a565b91505092915050565b6000806040838503121561266057600080fd5b600061266e8582860161250a565b925050602061267f8582860161250a565b9150509250929050565b60006126958383612921565b6101208301905092915050565b6126ab81612fef565b82525050565b6126ba81612fa7565b82525050565b6126c981612f95565b82525050565b6126d881612f95565b82525050565b60006126e982612e46565b6126f38185612e5e565b93506126fe83612e36565b8060005b8381101561272f5781516127168882612689565b975061272183612e51565b925050600181019050612702565b5085935050505092915050565b61274581612fb9565b82525050565b61275481612fb9565b82525050565b6000612767602c83612e6f565b9150612772826130cc565b604082019050919050565b600061278a602683612e6f565b91506127958261311b565b604082019050919050565b60006127ad601b83612e6f565b91506127b88261316a565b602082019050919050565b60006127d0601383612e6f565b91506127db82613193565b602082019050919050565b60006127f3601d83612e6f565b91506127fe826131bc565b602082019050919050565b6000612816601283612e6f565b9150612821826131e5565b602082019050919050565b6000612839602e83612e6f565b91506128448261320e565b604082019050919050565b600061285c602083612e6f565b91506128678261325d565b602082019050919050565b600061287f601e83612e6f565b915061288a82613286565b602082019050919050565b60006128a2601b83612e6f565b91506128ad826132af565b602082019050919050565b60006128c5602b83612e6f565b91506128d0826132d8565b604082019050919050565b60006128e8601f83612e6f565b91506128f382613327565b602082019050919050565b600061290b601c83612e6f565b915061291682613350565b602082019050919050565b610120820160008201516129386000850182612a8f565b50602082015161294b60208501826126c0565b50604082015161295e6040850182612a8f565b50606082015161297160608501826126b1565b50608082015161298460808501826126b1565b5060a082015161299760a0850182612a8f565b5060c08201516129aa60c0850182612a8f565b5060e08201516129bd60e0850182612a8f565b506101008201516129d261010085018261273c565b50505050565b610120820160008201516129ef6000850182612a8f565b506020820151612a0260208501826126c0565b506040820151612a156040850182612a8f565b506060820151612a2860608501826126b1565b506080820151612a3b60808501826126b1565b5060a0820151612a4e60a0850182612a8f565b5060c0820151612a6160c0850182612a8f565b5060e0820151612a7460e0850182612a8f565b50610100820151612a8961010085018261273c565b50505050565b612a9881612fe5565b82525050565b612aa781612fe5565b82525050565b6000602082019050612ac260008301846126cf565b92915050565b6000606082019050612add60008301866126cf565b612aea60208301856126a2565b612af7604083018461274b565b949350505050565b600060c082019050612b1460008301896126cf565b612b2160208301886126a2565b612b2e6040830187612a9e565b612b3b6060830186612a9e565b612b486080830185612a9e565b612b5560a083018461274b565b979650505050505050565b6000606082019050612b7560008301866126cf565b612b8260208301856126cf565b612b8f6040830184612a9e565b949350505050565b6000608082019050612bac60008301876126cf565b612bb960208301866126cf565b612bc66040830185612a9e565b612bd3606083018461274b565b95945050505050565b600060c082019050612bf160008301896126cf565b612bfe60208301886126cf565b612c0b6040830187612a9e565b612c186060830186612a9e565b612c256080830185612a9e565b612c3260a083018461274b565b979650505050505050565b60006020820190508181036000830152612c5781846126de565b905092915050565b60006020820190508181036000830152612c788161275a565b9050919050565b60006020820190508181036000830152612c988161277d565b9050919050565b60006020820190508181036000830152612cb8816127a0565b9050919050565b60006020820190508181036000830152612cd8816127c3565b9050919050565b60006020820190508181036000830152612cf8816127e6565b9050919050565b60006020820190508181036000830152612d1881612809565b9050919050565b60006020820190508181036000830152612d388161282c565b9050919050565b60006020820190508181036000830152612d588161284f565b9050919050565b60006020820190508181036000830152612d7881612872565b9050919050565b60006020820190508181036000830152612d9881612895565b9050919050565b60006020820190508181036000830152612db8816128b8565b9050919050565b60006020820190508181036000830152612dd8816128db565b9050919050565b60006020820190508181036000830152612df8816128fe565b9050919050565b600061012082019050612e1560008301846129d8565b92915050565b6000602082019050612e306000830184612a9e565b92915050565b6000819050602082019050919050565b600081519050919050565b6000602082019050919050565b600082825260208201905092915050565b600082825260208201905092915050565b6000612e8b82612fe5565b9150612e9683612fe5565b9250827fffffffffffffffffffffffffffffffffffffffffffffffffffffffffffffffff03821115612ecb57612eca61306e565b5b828201905092915050565b6000612ee182612fe5565b9150612eec83612fe5565b925082612efc57612efb61309d565b5b828204905092915050565b6000612f1282612fe5565b9150612f1d83612fe5565b9250817fffffffffffffffffffffffffffffffffffffffffffffffffffffffffffffffff0483118215151615612f5657612f5561306e565b5b828202905092915050565b6000612f6c82612fe5565b9150612f7783612fe5565b925082821015612f8a57612f8961306e565b5b828203905092915050565b6000612fa082612fc5565b9050919050565b6000612fb282612fc5565b9050919050565b60008115159050919050565b600073ffffffffffffffffffffffffffffffffffffffff82169050919050565b6000819050919050565b6000612ffa82613001565b9050919050565b600061300c82613013565b9050919050565b600061301e82612fc5565b9050919050565b600061303082612fe5565b91507fffffffffffffffffffffffffffffffffffffffffffffffffffffffffffffffff8214156130635761306261306e565b5b600182019050919050565b7f4e487b7100000000000000000000000000000000000000000000000000000000600052601160045260246000fd5b7f4e487b7100000000000000000000000000000000000000000000000000000000600052601260045260246000fd5b7f53616c652064617465207374617274206d757374206265206265666f7265207360008201527f616c65206461746520656e640000000000000000000000000000000000000000602082015250565b7f4f776e61626c653a206e6577206f776e657220697320746865207a65726f206160008201527f6464726573730000000000000000000000000000000000000000000000000000602082015250565b7f4e6f7420746865206f776e6572206f66207468697320746f6b656e0000000000600082015250565b7f4974656d206973206e6f74206f6e2073616c6500000000000000000000000000600082015250565b7f416d6f756e74206d7573742062652067726561746572207468616e2030000000600082015250565b7f496e73756666696369656e742066756e64730000000000000000000000000000600082015250565b7f496e697469616c697a61626c653a20636f6e747261637420697320616c72656160008201527f647920696e697469616c697a6564000000000000000000000000000000000000602082015250565b7f4f776e61626c653a2063616c6c6572206973206e6f7420746865206f776e6572600082015250565b7f4974656d206973206e6f7420617661696c61626c6520666f722073616c650000600082015250565b7f56616c7565206d757374206d61746368206974656d2070726963650000000000600082015250565b7f496e697469616c697a61626c653a20636f6e7472616374206973206e6f74206960008201527f6e697469616c697a696e67000000000000000000000000000000000000000000602082015250565b7f5265656e7472616e637947756172643a207265656e7472616e742063616c6c00600082015250565b7f5072696365206d7573742062652067726561746572207468616e203000000000600082015250565b61338281612f95565b811461338d57600080fd5b50565b61339981612fe5565b81146133a457600080fd5b5056fea264697066735822122079f0a12b340989532c3c0cb6ab6ea5d90f291e885231bf5c85548a2999d4e48064736f6c63430008030033",
  "linkReferences": {},
  "deployedLinkReferences": {}
}