{
  "_format": "hh-sol-artifact-1",
  "contractName": "NftMusic721",
  "sourceName": "contracts/NftMusic721.sol",
  "abi": [
    {
      "inputs": [
        {
          "internalType": "address",
          "name": "marketplace",
          "type": "address"
        }
      ],
      "stateMutability": "nonpayable",
      "type": "constructor"
    },
    {
      "anonymous": false,
      "inputs": [
        {
          "indexed": true,
          "internalType": "address",
          "name": "owner",
          "type": "address"
        },
        {
          "indexed": true,
          "internalType": "address",
          "name": "approved",
          "type": "address"
        },
        {
          "indexed": true,
          "internalType": "uint256",
          "name": "tokenId",
          "type": "uint256"
        }
      ],
      "name": "Approval",
      "type": "event"
    },
    {
      "anonymous": false,
      "inputs": [
        {
          "indexed": true,
          "internalType": "address",
          "name": "owner",
          "type": "address"
        },
        {
          "indexed": true,
          "internalType": "address",
          "name": "operator",
          "type": "address"
        },
        {
          "indexed": false,
          "internalType": "bool",
          "name": "approved",
          "type": "bool"
        }
      ],
      "name": "ApprovalForAll",
      "type": "event"
    },
    {
      "anonymous": false,
      "inputs": [
        {
          "indexed": true,
          "internalType": "address",
          "name": "from",
          "type": "address"
        },
        {
          "indexed": true,
          "internalType": "address",
          "name": "to",
          "type": "address"
        },
        {
          "indexed": true,
          "internalType": "uint256",
          "name": "tokenId",
          "type": "uint256"
        }
      ],
      "name": "Transfer",
      "type": "event"
    },
    {
      "inputs": [
        {
          "internalType": "address",
          "name": "to",
          "type": "address"
        },
        {
          "internalType": "uint256",
          "name": "tokenId",
          "type": "uint256"
        }
      ],
      "name": "approve",
      "outputs": [],
      "stateMutability": "nonpayable",
      "type": "function"
    },
    {
      "inputs": [
        {
          "internalType": "address",
          "name": "owner",
          "type": "address"
        }
      ],
      "name": "balanceOf",
      "outputs": [
        {
          "internalType": "uint256",
          "name": "",
          "type": "uint256"
        }
      ],
      "stateMutability": "view",
      "type": "function"
    },
    {
      "inputs": [
        {
          "internalType": "uint256",
          "name": "tokenId",
          "type": "uint256"
        }
      ],
      "name": "getApproved",
      "outputs": [
        {
          "internalType": "address",
          "name": "",
          "type": "address"
        }
      ],
      "stateMutability": "view",
      "type": "function"
    },
    {
      "inputs": [
        {
          "internalType": "address",
          "name": "owner",
          "type": "address"
        },
        {
          "internalType": "address",
          "name": "operator",
          "type": "address"
        }
      ],
      "name": "isApprovedForAll",
      "outputs": [
        {
          "internalType": "bool",
          "name": "",
          "type": "bool"
        }
      ],
      "stateMutability": "view",
      "type": "function"
    },
    {
      "inputs": [
        {
          "internalType": "string",
          "name": "tokenURI",
          "type": "string"
        },
        {
          "internalType": "uint256",
          "name": "tokenId",
          "type": "uint256"
        }
      ],
      "name": "mintNft",
      "outputs": [
        {
          "internalType": "uint256",
          "name": "",
          "type": "uint256"
        }
      ],
      "stateMutability": "nonpayable",
      "type": "function"
    },
    {
      "inputs": [],
      "name": "name",
      "outputs": [
        {
          "internalType": "string",
          "name": "",
          "type": "string"
        }
      ],
      "stateMutability": "view",
      "type": "function"
    },
    {
      "inputs": [
        {
          "internalType": "uint256",
          "name": "tokenId",
          "type": "uint256"
        }
      ],
      "name": "ownerOf",
      "outputs": [
        {
          "internalType": "address",
          "name": "",
          "type": "address"
        }
      ],
      "stateMutability": "view",
      "type": "function"
    },
    {
      "inputs": [
        {
          "internalType": "address",
          "name": "from",
          "type": "address"
        },
        {
          "internalType": "address",
          "name": "to",
          "type": "address"
        },
        {
          "internalType": "uint256",
          "name": "tokenId",
          "type": "uint256"
        }
      ],
      "name": "safeTransferFrom",
      "outputs": [],
      "stateMutability": "nonpayable",
      "type": "function"
    },
    {
      "inputs": [
        {
          "internalType": "address",
          "name": "from",
          "type": "address"
        },
        {
          "internalType": "address",
          "name": "to",
          "type": "address"
        },
        {
          "internalType": "uint256",
          "name": "tokenId",
          "type": "uint256"
        },
        {
          "internalType": "bytes",
          "name": "_data",
          "type": "bytes"
        }
      ],
      "name": "safeTransferFrom",
      "outputs": [],
      "stateMutability": "nonpayable",
      "type": "function"
    },
    {
      "inputs": [
        {
          "internalType": "address",
          "name": "operator",
          "type": "address"
        },
        {
          "internalType": "bool",
          "name": "approved",
          "type": "bool"
        }
      ],
      "name": "setApprovalForAll",
      "outputs": [],
      "stateMutability": "nonpayable",
      "type": "function"
    },
    {
      "inputs": [
        {
          "internalType": "bytes4",
          "name": "interfaceId",
          "type": "bytes4"
        }
      ],
      "name": "supportsInterface",
      "outputs": [
        {
          "internalType": "bool",
          "name": "",
          "type": "bool"
        }
      ],
      "stateMutability": "view",
      "type": "function"
    },
    {
      "inputs": [],
      "name": "symbol",
      "outputs": [
        {
          "internalType": "string",
          "name": "",
          "type": "string"
        }
      ],
      "stateMutability": "view",
      "type": "function"
    },
    {
      "inputs": [
        {
          "internalType": "uint256",
          "name": "tokenId",
          "type": "uint256"
        }
      ],
      "name": "tokenURI",
      "outputs": [
        {
          "internalType": "string",
          "name": "",
          "type": "string"
        }
      ],
      "stateMutability": "view",
      "type": "function"
    },
    {
      "inputs": [
        {
          "internalType": "address",
          "name": "from",
          "type": "address"
        },
        {
          "internalType": "address",
          "name": "to",
          "type": "address"
        },
        {
          "internalType": "uint256",
          "name": "tokenId",
          "type": "uint256"
        }
      ],
      "name": "transferFrom",
      "outputs": [],
      "stateMutability": "nonpayable",
      "type": "function"
    }
  ],
  "bytecode": "0x60806040523480156200001157600080fd5b5060405162002e7f38038062002e7f8339818101604052810190620000379190620001e6565b6040518060400160405280600981526020017f4e46542d4d7573696300000000000000000000000000000000000000000000008152506040518060400160405280600481526020017f4e464d43000000000000000000000000000000000000000000000000000000008152508160009080519060200190620000bb9291906200011f565b508060019080519060200190620000d49291906200011f565b50505080600860006101000a81548173ffffffffffffffffffffffffffffffffffffffff021916908373ffffffffffffffffffffffffffffffffffffffff16021790555050620002c5565b8280546200012d9062000246565b90600052602060002090601f0160209004810192826200015157600085556200019d565b82601f106200016c57805160ff19168380011785556200019d565b828001600101855582156200019d579182015b828111156200019c5782518255916020019190600101906200017f565b5b509050620001ac9190620001b0565b5090565b5b80821115620001cb576000816000905550600101620001b1565b5090565b600081519050620001e081620002ab565b92915050565b600060208284031215620001f957600080fd5b60006200020984828501620001cf565b91505092915050565b60006200021f8262000226565b9050919050565b600073ffffffffffffffffffffffffffffffffffffffff82169050919050565b600060028204905060018216806200025f57607f821691505b602082108114156200027657620002756200027c565b5b50919050565b7f4e487b7100000000000000000000000000000000000000000000000000000000600052602260045260246000fd5b620002b68162000212565b8114620002c257600080fd5b50565b612baa80620002d56000396000f3fe608060405234801561001057600080fd5b50600436106100ea5760003560e01c80636352211e1161008c578063a22cb46511610066578063a22cb4651461026f578063b88d4fde1461028b578063c87b56dd146102a7578063e985e9c5146102d7576100ea565b80636352211e146101f157806370a082311461022157806395d89b4114610251576100ea565b8063095ea7b3116100c8578063095ea7b31461016d57806323b872dd146101895780632c7e5ec1146101a557806342842e0e146101d5576100ea565b806301ffc9a7146100ef57806306fdde031461011f578063081812fc1461013d575b600080fd5b61010960048036038101906101049190611c03565b610307565b604051610116919061205d565b60405180910390f35b6101276103e9565b6040516101349190612078565b60405180910390f35b61015760048036038101906101529190611ca9565b61047b565b6040516101649190611ff6565b60405180910390f35b61018760048036038101906101829190611bc7565b610500565b005b6101a3600480360381019061019e9190611ac1565b610618565b005b6101bf60048036038101906101ba9190611c55565b610678565b6040516101cc919061229a565b60405180910390f35b6101ef60048036038101906101ea9190611ac1565b6106ce565b005b61020b60048036038101906102069190611ca9565b6106ee565b6040516102189190611ff6565b60405180910390f35b61023b60048036038101906102369190611a5c565b6107a0565b604051610248919061229a565b60405180910390f35b610259610858565b6040516102669190612078565b60405180910390f35b61028960048036038101906102849190611b8b565b6108ea565b005b6102a560048036038101906102a09190611b10565b610900565b005b6102c160048036038101906102bc9190611ca9565b610962565b6040516102ce9190612078565b60405180910390f35b6102f160048036038101906102ec9190611a85565b610ab4565b6040516102fe919061205d565b60405180910390f35b60007f80ac58cd000000000000000000000000000000000000000000000000000000007bffffffffffffffffffffffffffffffffffffffffffffffffffffffff1916827bffffffffffffffffffffffffffffffffffffffffffffffffffffffff191614806103d257507f5b5e139f000000000000000000000000000000000000000000000000000000007bffffffffffffffffffffffffffffffffffffffffffffffffffffffff1916827bffffffffffffffffffffffffffffffffffffffffffffffffffffffff1916145b806103e257506103e182610b48565b5b9050919050565b6060600080546103f8906124f0565b80601f0160208091040260200160405190810160405280929190818152602001828054610424906124f0565b80156104715780601f1061044657610100808354040283529160200191610471565b820191906000526020600020905b81548152906001019060200180831161045457829003601f168201915b5050505050905090565b600061048682610bb2565b6104c5576040517f08c379a00000000000000000000000000000000000000000000000000000000081526004016104bc9061221a565b60405180910390fd5b6004600083815260200190815260200160002060009054906101000a900473ffffffffffffffffffffffffffffffffffffffff169050919050565b600061050b826106ee565b90508073ffffffffffffffffffffffffffffffffffffffff168373ffffffffffffffffffffffffffffffffffffffff16141561057c576040517f08c379a00000000000000000000000000000000000000000000000000000000081526004016105739061225a565b60405180910390fd5b8073ffffffffffffffffffffffffffffffffffffffff1661059b610c1e565b73ffffffffffffffffffffffffffffffffffffffff1614806105ca57506105c9816105c4610c1e565b610ab4565b5b610609576040517f08c379a00000000000000000000000000000000000000000000000000000000081526004016106009061215a565b60405180910390fd5b6106138383610c26565b505050565b610629610623610c1e565b82610cdf565b610668576040517f08c379a000000000000000000000000000000000000000000000000000000000815260040161065f9061227a565b60405180910390fd5b610673838383610dbd565b505050565b60006106846007611024565b61068e338361103a565b6106988284611214565b6106c5600860009054906101000a900473ffffffffffffffffffffffffffffffffffffffff1660016108ea565b81905092915050565b6106e983838360405180602001604052806000815250610900565b505050565b6000806002600084815260200190815260200160002060009054906101000a900473ffffffffffffffffffffffffffffffffffffffff169050600073ffffffffffffffffffffffffffffffffffffffff168173ffffffffffffffffffffffffffffffffffffffff161415610797576040517f08c379a000000000000000000000000000000000000000000000000000000000815260040161078e9061219a565b60405180910390fd5b80915050919050565b60008073ffffffffffffffffffffffffffffffffffffffff168273ffffffffffffffffffffffffffffffffffffffff161415610811576040517f08c379a00000000000000000000000000000000000000000000000000000000081526004016108089061217a565b60405180910390fd5b600360008373ffffffffffffffffffffffffffffffffffffffff1673ffffffffffffffffffffffffffffffffffffffff168152602001908152602001600020549050919050565b606060018054610867906124f0565b80601f0160208091040260200160405190810160405280929190818152602001828054610893906124f0565b80156108e05780601f106108b5576101008083540402835291602001916108e0565b820191906000526020600020905b8154815290600101906020018083116108c357829003601f168201915b5050505050905090565b6108fc6108f5610c1e565b8383611288565b5050565b61091161090b610c1e565b83610cdf565b610950576040517f08c379a00000000000000000000000000000000000000000000000000000000081526004016109479061227a565b60405180910390fd5b61095c848484846113f5565b50505050565b606061096d82610bb2565b6109ac576040517f08c379a00000000000000000000000000000000000000000000000000000000081526004016109a3906121fa565b60405180910390fd5b60006006600084815260200190815260200160002080546109cc906124f0565b80601f01602080910402602001604051908101604052809291908181526020018280546109f8906124f0565b8015610a455780601f10610a1a57610100808354040283529160200191610a45565b820191906000526020600020905b815481529060010190602001808311610a2857829003601f168201915b505050505090506000610a56611451565b9050600081511415610a6c578192505050610aaf565b600082511115610aa1578082604051602001610a89929190611fd2565b60405160208183030381529060405292505050610aaf565b610aaa84611468565b925050505b919050565b6000600560008473ffffffffffffffffffffffffffffffffffffffff1673ffffffffffffffffffffffffffffffffffffffff16815260200190815260200160002060008373ffffffffffffffffffffffffffffffffffffffff1673ffffffffffffffffffffffffffffffffffffffff16815260200190815260200160002060009054906101000a900460ff16905092915050565b60007f01ffc9a7000000000000000000000000000000000000000000000000000000007bffffffffffffffffffffffffffffffffffffffffffffffffffffffff1916827bffffffffffffffffffffffffffffffffffffffffffffffffffffffff1916149050919050565b60008073ffffffffffffffffffffffffffffffffffffffff166002600084815260200190815260200160002060009054906101000a900473ffffffffffffffffffffffffffffffffffffffff1673ffffffffffffffffffffffffffffffffffffffff1614159050919050565b600033905090565b816004600083815260200190815260200160002060006101000a81548173ffffffffffffffffffffffffffffffffffffffff021916908373ffffffffffffffffffffffffffffffffffffffff160217905550808273ffffffffffffffffffffffffffffffffffffffff16610c99836106ee565b73ffffffffffffffffffffffffffffffffffffffff167f8c5be1e5ebec7d5bd14f71427d1e84f3dd0314c0f7b2291e5b200ac8c7c3b92560405160405180910390a45050565b6000610cea82610bb2565b610d29576040517f08c379a0000000000000000000000000000000000000000000000000000000008152600401610d209061213a565b60405180910390fd5b6000610d34836106ee565b90508073ffffffffffffffffffffffffffffffffffffffff168473ffffffffffffffffffffffffffffffffffffffff161480610da357508373ffffffffffffffffffffffffffffffffffffffff16610d8b8461047b565b73ffffffffffffffffffffffffffffffffffffffff16145b80610db45750610db38185610ab4565b5b91505092915050565b8273ffffffffffffffffffffffffffffffffffffffff16610ddd826106ee565b73ffffffffffffffffffffffffffffffffffffffff1614610e33576040517f08c379a0000000000000000000000000000000000000000000000000000000008152600401610e2a906120ba565b60405180910390fd5b600073ffffffffffffffffffffffffffffffffffffffff168273ffffffffffffffffffffffffffffffffffffffff161415610ea3576040517f08c379a0000000000000000000000000000000000000000000000000000000008152600401610e9a906120fa565b60405180910390fd5b610eae83838361150f565b610eb9600082610c26565b6001600360008573ffffffffffffffffffffffffffffffffffffffff1673ffffffffffffffffffffffffffffffffffffffff1681526020019081526020016000206000828254610f099190612406565b925050819055506001600360008473ffffffffffffffffffffffffffffffffffffffff1673ffffffffffffffffffffffffffffffffffffffff1681526020019081526020016000206000828254610f60919061237f565b92505081905550816002600083815260200190815260200160002060006101000a81548173ffffffffffffffffffffffffffffffffffffffff021916908373ffffffffffffffffffffffffffffffffffffffff160217905550808273ffffffffffffffffffffffffffffffffffffffff168473ffffffffffffffffffffffffffffffffffffffff167fddf252ad1be2c89b69c2b068fc378daa952ba7f163c4a11628f55a4df523b3ef60405160405180910390a461101f838383611514565b505050565b6001816000016000828254019250508190555050565b600073ffffffffffffffffffffffffffffffffffffffff168273ffffffffffffffffffffffffffffffffffffffff1614156110aa576040517f08c379a00000000000000000000000000000000000000000000000000000000081526004016110a1906121da565b60405180910390fd5b6110b381610bb2565b156110f3576040517f08c379a00000000000000000000000000000000000000000000000000000000081526004016110ea906120da565b60405180910390fd5b6110ff6000838361150f565b6001600360008473ffffffffffffffffffffffffffffffffffffffff1673ffffffffffffffffffffffffffffffffffffffff168152602001908152602001600020600082825461114f919061237f565b92505081905550816002600083815260200190815260200160002060006101000a81548173ffffffffffffffffffffffffffffffffffffffff021916908373ffffffffffffffffffffffffffffffffffffffff160217905550808273ffffffffffffffffffffffffffffffffffffffff16600073ffffffffffffffffffffffffffffffffffffffff167fddf252ad1be2c89b69c2b068fc378daa952ba7f163c4a11628f55a4df523b3ef60405160405180910390a461121060008383611514565b5050565b61121d82610bb2565b61125c576040517f08c379a0000000000000000000000000000000000000000000000000000000008152600401611253906121ba565b60405180910390fd5b80600660008481526020019081526020016000209080519060200190611283929190611880565b505050565b8173ffffffffffffffffffffffffffffffffffffffff168373ffffffffffffffffffffffffffffffffffffffff1614156112f7576040517f08c379a00000000000000000000000000000000000000000000000000000000081526004016112ee9061211a565b60405180910390fd5b80600560008573ffffffffffffffffffffffffffffffffffffffff1673ffffffffffffffffffffffffffffffffffffffff16815260200190815260200160002060008473ffffffffffffffffffffffffffffffffffffffff1673ffffffffffffffffffffffffffffffffffffffff16815260200190815260200160002060006101000a81548160ff0219169083151502179055508173ffffffffffffffffffffffffffffffffffffffff168373ffffffffffffffffffffffffffffffffffffffff167f17307eab39ab6107e8899845ad3d59bd9653f200f220920489ca2b5937696c31836040516113e8919061205d565b60405180910390a3505050565b611400848484610dbd565b61140c84848484611519565b61144b576040517f08c379a00000000000000000000000000000000000000000000000000000000081526004016114429061209a565b60405180910390fd5b50505050565b606060405180602001604052806000815250905090565b606061147382610bb2565b6114b2576040517f08c379a00000000000000000000000000000000000000000000000000000000081526004016114a99061223a565b60405180910390fd5b60006114bc611451565b905060008151116114dc5760405180602001604052806000815250611507565b806114e6846116b0565b6040516020016114f7929190611fd2565b6040516020818303038152906040525b915050919050565b505050565b505050565b600061153a8473ffffffffffffffffffffffffffffffffffffffff1661185d565b156116a3578373ffffffffffffffffffffffffffffffffffffffff1663150b7a02611563610c1e565b8786866040518563ffffffff1660e01b81526004016115859493929190612011565b602060405180830381600087803b15801561159f57600080fd5b505af19250505080156115d057506040513d601f19601f820116820180604052508101906115cd9190611c2c565b60015b611653573d8060008114611600576040519150601f19603f3d011682016040523d82523d6000602084013e611605565b606091505b5060008151141561164b576040517f08c379a00000000000000000000000000000000000000000000000000000000081526004016116429061209a565b60405180910390fd5b805181602001fd5b63150b7a0260e01b7bffffffffffffffffffffffffffffffffffffffffffffffffffffffff1916817bffffffffffffffffffffffffffffffffffffffffffffffffffffffff1916149150506116a8565b600190505b949350505050565b606060008214156116f8576040518060400160405280600181526020017f30000000000000000000000000000000000000000000000000000000000000008152509050611858565b600082905060005b6000821461172a57808061171390612553565b915050600a8261172391906123d5565b9150611700565b60008167ffffffffffffffff81111561176c577f4e487b7100000000000000000000000000000000000000000000000000000000600052604160045260246000fd5b6040519080825280601f01601f19166020018201604052801561179e5781602001600182028036833780820191505090505b5090505b60008514611851576001826117b79190612406565b9150600a856117c6919061259c565b60306117d2919061237f565b60f81b81838151811061180e577f4e487b7100000000000000000000000000000000000000000000000000000000600052603260045260246000fd5b60200101907effffffffffffffffffffffffffffffffffffffffffffffffffffffffffffff1916908160001a905350600a8561184a91906123d5565b94506117a2565b8093505050505b919050565b6000808273ffffffffffffffffffffffffffffffffffffffff163b119050919050565b82805461188c906124f0565b90600052602060002090601f0160209004810192826118ae57600085556118f5565b82601f106118c757805160ff19168380011785556118f5565b828001600101855582156118f5579182015b828111156118f45782518255916020019190600101906118d9565b5b5090506119029190611906565b5090565b5b8082111561191f576000816000905550600101611907565b5090565b6000611936611931846122da565b6122b5565b90508281526020810184848401111561194e57600080fd5b6119598482856124ae565b509392505050565b600061197461196f8461230b565b6122b5565b90508281526020810184848401111561198c57600080fd5b6119978482856124ae565b509392505050565b6000813590506119ae81612b18565b92915050565b6000813590506119c381612b2f565b92915050565b6000813590506119d881612b46565b92915050565b6000815190506119ed81612b46565b92915050565b600082601f830112611a0457600080fd5b8135611a14848260208601611923565b91505092915050565b600082601f830112611a2e57600080fd5b8135611a3e848260208601611961565b91505092915050565b600081359050611a5681612b5d565b92915050565b600060208284031215611a6e57600080fd5b6000611a7c8482850161199f565b91505092915050565b60008060408385031215611a9857600080fd5b6000611aa68582860161199f565b9250506020611ab78582860161199f565b9150509250929050565b600080600060608486031215611ad657600080fd5b6000611ae48682870161199f565b9350506020611af58682870161199f565b9250506040611b0686828701611a47565b9150509250925092565b60008060008060808587031215611b2657600080fd5b6000611b348782880161199f565b9450506020611b458782880161199f565b9350506040611b5687828801611a47565b925050606085013567ffffffffffffffff811115611b7357600080fd5b611b7f878288016119f3565b91505092959194509250565b60008060408385031215611b9e57600080fd5b6000611bac8582860161199f565b9250506020611bbd858286016119b4565b9150509250929050565b60008060408385031215611bda57600080fd5b6000611be88582860161199f565b9250506020611bf985828601611a47565b9150509250929050565b600060208284031215611c1557600080fd5b6000611c23848285016119c9565b91505092915050565b600060208284031215611c3e57600080fd5b6000611c4c848285016119de565b91505092915050565b60008060408385031215611c6857600080fd5b600083013567ffffffffffffffff811115611c8257600080fd5b611c8e85828601611a1d565b9250506020611c9f85828601611a47565b9150509250929050565b600060208284031215611cbb57600080fd5b6000611cc984828501611a47565b91505092915050565b611cdb8161243a565b82525050565b611cea8161244c565b82525050565b6000611cfb8261233c565b611d058185612352565b9350611d158185602086016124bd565b611d1e81612689565b840191505092915050565b6000611d3482612347565b611d3e8185612363565b9350611d4e8185602086016124bd565b611d5781612689565b840191505092915050565b6000611d6d82612347565b611d778185612374565b9350611d878185602086016124bd565b80840191505092915050565b6000611da0603283612363565b9150611dab8261269a565b604082019050919050565b6000611dc3602583612363565b9150611dce826126e9565b604082019050919050565b6000611de6601c83612363565b9150611df182612738565b602082019050919050565b6000611e09602483612363565b9150611e1482612761565b604082019050919050565b6000611e2c601983612363565b9150611e37826127b0565b602082019050919050565b6000611e4f602c83612363565b9150611e5a826127d9565b604082019050919050565b6000611e72603883612363565b9150611e7d82612828565b604082019050919050565b6000611e95602a83612363565b9150611ea082612877565b604082019050919050565b6000611eb8602983612363565b9150611ec3826128c6565b604082019050919050565b6000611edb602e83612363565b9150611ee682612915565b604082019050919050565b6000611efe602083612363565b9150611f0982612964565b602082019050919050565b6000611f21603183612363565b9150611f2c8261298d565b604082019050919050565b6000611f44602c83612363565b9150611f4f826129dc565b604082019050919050565b6000611f67602f83612363565b9150611f7282612a2b565b604082019050919050565b6000611f8a602183612363565b9150611f9582612a7a565b604082019050919050565b6000611fad603183612363565b9150611fb882612ac9565b604082019050919050565b611fcc816124a4565b82525050565b6000611fde8285611d62565b9150611fea8284611d62565b91508190509392505050565b600060208201905061200b6000830184611cd2565b92915050565b60006080820190506120266000830187611cd2565b6120336020830186611cd2565b6120406040830185611fc3565b81810360608301526120528184611cf0565b905095945050505050565b60006020820190506120726000830184611ce1565b92915050565b600060208201905081810360008301526120928184611d29565b905092915050565b600060208201905081810360008301526120b381611d93565b9050919050565b600060208201905081810360008301526120d381611db6565b9050919050565b600060208201905081810360008301526120f381611dd9565b9050919050565b6000602082019050818103600083015261211381611dfc565b9050919050565b6000602082019050818103600083015261213381611e1f565b9050919050565b6000602082019050818103600083015261215381611e42565b9050919050565b6000602082019050818103600083015261217381611e65565b9050919050565b6000602082019050818103600083015261219381611e88565b9050919050565b600060208201905081810360008301526121b381611eab565b9050919050565b600060208201905081810360008301526121d381611ece565b9050919050565b600060208201905081810360008301526121f381611ef1565b9050919050565b6000602082019050818103600083015261221381611f14565b9050919050565b6000602082019050818103600083015261223381611f37565b9050919050565b6000602082019050818103600083015261225381611f5a565b9050919050565b6000602082019050818103600083015261227381611f7d565b9050919050565b6000602082019050818103600083015261229381611fa0565b9050919050565b60006020820190506122af6000830184611fc3565b92915050565b60006122bf6122d0565b90506122cb8282612522565b919050565b6000604051905090565b600067ffffffffffffffff8211156122f5576122f461265a565b5b6122fe82612689565b9050602081019050919050565b600067ffffffffffffffff8211156123265761232561265a565b5b61232f82612689565b9050602081019050919050565b600081519050919050565b600081519050919050565b600082825260208201905092915050565b600082825260208201905092915050565b600081905092915050565b600061238a826124a4565b9150612395836124a4565b9250827fffffffffffffffffffffffffffffffffffffffffffffffffffffffffffffffff038211156123ca576123c96125cd565b5b828201905092915050565b60006123e0826124a4565b91506123eb836124a4565b9250826123fb576123fa6125fc565b5b828204905092915050565b6000612411826124a4565b915061241c836124a4565b92508282101561242f5761242e6125cd565b5b828203905092915050565b600061244582612484565b9050919050565b60008115159050919050565b60007fffffffff0000000000000000000000000000000000000000000000000000000082169050919050565b600073ffffffffffffffffffffffffffffffffffffffff82169050919050565b6000819050919050565b82818337600083830152505050565b60005b838110156124db5780820151818401526020810190506124c0565b838111156124ea576000848401525b50505050565b6000600282049050600182168061250857607f821691505b6020821081141561251c5761251b61262b565b5b50919050565b61252b82612689565b810181811067ffffffffffffffff8211171561254a5761254961265a565b5b80604052505050565b600061255e826124a4565b91507fffffffffffffffffffffffffffffffffffffffffffffffffffffffffffffffff821415612591576125906125cd565b5b600182019050919050565b60006125a7826124a4565b91506125b2836124a4565b9250826125c2576125c16125fc565b5b828206905092915050565b7f4e487b7100000000000000000000000000000000000000000000000000000000600052601160045260246000fd5b7f4e487b7100000000000000000000000000000000000000000000000000000000600052601260045260246000fd5b7f4e487b7100000000000000000000000000000000000000000000000000000000600052602260045260246000fd5b7f4e487b7100000000000000000000000000000000000000000000000000000000600052604160045260246000fd5b6000601f19601f8301169050919050565b7f4552433732313a207472616e7366657220746f206e6f6e20455243373231526560008201527f63656976657220696d706c656d656e7465720000000000000000000000000000602082015250565b7f4552433732313a207472616e736665722066726f6d20696e636f72726563742060008201527f6f776e6572000000000000000000000000000000000000000000000000000000602082015250565b7f4552433732313a20746f6b656e20616c7265616479206d696e74656400000000600082015250565b7f4552433732313a207472616e7366657220746f20746865207a65726f2061646460008201527f7265737300000000000000000000000000000000000000000000000000000000602082015250565b7f4552433732313a20617070726f766520746f2063616c6c657200000000000000600082015250565b7f4552433732313a206f70657261746f7220717565727920666f72206e6f6e657860008201527f697374656e7420746f6b656e0000000000000000000000000000000000000000602082015250565b7f4552433732313a20617070726f76652063616c6c6572206973206e6f74206f7760008201527f6e6572206e6f7220617070726f76656420666f7220616c6c0000000000000000602082015250565b7f4552433732313a2062616c616e636520717565727920666f7220746865207a6560008201527f726f206164647265737300000000000000000000000000000000000000000000602082015250565b7f4552433732313a206f776e657220717565727920666f72206e6f6e657869737460008201527f656e7420746f6b656e0000000000000000000000000000000000000000000000602082015250565b7f45524337323155524953746f726167653a2055524920736574206f66206e6f6e60008201527f6578697374656e7420746f6b656e000000000000000000000000000000000000602082015250565b7f4552433732313a206d696e7420746f20746865207a65726f2061646472657373600082015250565b7f45524337323155524953746f726167653a2055524920717565727920666f722060008201527f6e6f6e6578697374656e7420746f6b656e000000000000000000000000000000602082015250565b7f4552433732313a20617070726f76656420717565727920666f72206e6f6e657860008201527f697374656e7420746f6b656e0000000000000000000000000000000000000000602082015250565b7f4552433732314d657461646174613a2055524920717565727920666f72206e6f60008201527f6e6578697374656e7420746f6b656e0000000000000000000000000000000000602082015250565b7f4552433732313a20617070726f76616c20746f2063757272656e74206f776e6560008201527f7200000000000000000000000000000000000000000000000000000000000000602082015250565b7f4552433732313a207472616e736665722063616c6c6572206973206e6f74206f60008201527f776e6572206e6f7220617070726f766564000000000000000000000000000000602082015250565b612b218161243a565b8114612b2c57600080fd5b50565b612b388161244c565b8114612b4357600080fd5b50565b612b4f81612458565b8114612b5a57600080fd5b50565b612b66816124a4565b8114612b7157600080fd5b5056fea2646970667358221220d4909e26b19b3611bce964bf9d334d14c6c5ff51cd0319880721054a9be27bc264736f6c63430008030033",
  "linkReferences": {},
  "deployedLinkReferences": {}
}